:100000000C9434000C947F000C9446000C94460031
:100010000C9446000C9446000C9446000C94460048
:100020000C9446000C9446000C9446000C94460038
:100030000C9446000C9446000C9446000C94460028
:100040000C9446000C9446000C9446000C94460018
:100050000C9446000C9446000C9446000C94460008
:100060000C9446000C94460011241FBECFEFD8E03C
:10007000DEBFCDBF21E0A0E0B1E001C01D92A831FC
:10008000B207E1F70E9414020C9488020C9400005D
:10009000982F92959F70906395B92D9800008F705E
:1000A000806385B92D9881EE94E00197F1F700C047
:1000B00000000895982F92959F70906295B92D98A1
:1000C00000008F70806285B92D9881EE94E00197D1
:1000D000F1F700C0000008958BE49DE10197F1F76E
:1000E00000C0000088E20E945A008CE00E945A0082
:1000F00081E00E945A0086E00E945A0008951F92F3
:100100000F920FB60F9211242F933F934F935F934B
:100110006F937F938F939F93AF93BF93EF93FF93CF
:1001200080E88AB98BB981E00E945A002FE784E801
:100130009EE1215080409040E1F700C000001BB8D4
:10014000FF91EF91BF91AF919F918F917F916F91AF
:100150005F914F913F912F910F900FBE0F901F9085
:1001600018954AE050E06EE071E0809116019091A0
:1001700017010E9443028091020190910301FC014A
:10018000E25FFE4F209116012083019690930301B8
:100190008093020181E80E945A0080910E010E9422
:1001A00048002FE38DE093E0215080409040E1F73C
:1001B00000C0000080910F010E9448002FE38DE0F5
:1001C00093E0215080409040E1F700C00000809112
:1001D00010010E9448002FE38DE093E02150804001
:1001E0009040E1F700C0000008954AE050E062E16D
:1001F00071E080910A0190910B010E94430280916D
:10020000040190910501FC01EE5EFE4F20910A0170
:1002100020830196909305018093040186E80E9453
:100220005A00809112010E9448002FE38DE093E074
:10023000215080409040E1F700C0000087E80E9414
:100240005A00809113010E9448002FE38DE093E053
:10025000215080409040E1F700C0000088E80E94F3
:100260005A00809114010E9448002FE38DE093E032
:10027000215080409040E1F700C0000008954AE01E
:1002800050E066E071E080910C0190910D010E94B8
:1002900043028091000190910101FC01EA5FFE4F51
:1002A00020910C012083019690930101809300011D
:1002B0008BE80E945A00809106010E9448002FE3BB
:1002C0008DE093E0215080409040E1F700C00000B5
:1002D00080910701882389F08CE80E945A00809160
:1002E00007010E9448002FE38DE093E021508040F9
:1002F0009040E1F700C000000FC08CE80E945A0057
:1003000081E10E94480081E10E94480081E10E9451
:10031000480081E10E94480080910801882389F00B
:100320008DE80E945A00809108010E9448002FE346
:100330008DE093E0215080409040E1F700C0000044
:1003400009C08DE80E945A0081E10E94480081E1C5
:100350000E94480080910901882341F08EE80E94A4
:100360005A00809109010E94480008958EE80E9479
:100370005A0081E10E9448000895ECE7F0E0808196
:10038000807F8083EAE7F0E08081806480838081E1
:1003900086FDFDCF809178009091790090931701B0
:1003A000809316010895ECE7F0E08081807F816002
:1003B0008083EAE7F0E0808180648083808186FD2D
:1003C000FDCF809178009091790090930B018093FC
:1003D0000A010895ECE7F0E08081807F82608083ED
:1003E000EAE7F0E0808180648083808186FDFDCF34
:1003F000809178009091790090930D0180930C0189
:10040000089580E480937C00EAE7F0E01082808128
:100410008068808380818160808380818260808326
:1004200080818460808308958FEF84B985B90E94AC
:100430006C000E94010281E08DBB82E08093690024
:1004400084E08AB98BB978940E94BD010E94D301DF
:100450000E94EA0180E80E945A0088E50E94480054
:1004600085E80E945A0089E50E9448008AE80E94B7
:100470005A008AE50E9448000E94B1000E94F500DF
:100480000E943F01E1CFFB019F01E8944230C4F09C
:100490004532B4F44A3029F497FB1EF490958195C7
:1004A0009F4F642F77270E947402805D8A330CF07F
:1004B000895D8193CB010097A1F716F45DE251931A
:1004C0001082C9010C946402DC01FC01672F719158
:1004D0007723E1F7329704C07C916D93708362912A
:1004E000AE17BF07C8F30895AA1BBB1B51E107C095
:1004F000AA1FBB1FA617B70710F0A61BB70B881FB4
:10050000991F5A95A9F780959095BC01CD01089542
:04051000F894FFCF8D
:00000001FF
